:020000040800F2
:10000000600800202902000877310008B51F0008A9
:1000100075310008C9040008DF3A0008000000003C
:100020000000000000000000000000007937000818
:10003000CB06000800000000B53500087B3700083B
:10004000430200084302000843020008430200087C
:10005000430200084302000843020008430200086C
:10006000430200084302000843020008430200085C
:10007000430200084302000843020008430200084C
:10008000430200084302000843020008430200083C
:10009000430200084302000843020008430200082C
:1000A000430200084302000843020008430200081C
:1000B000430200084302000843020008430200080C
:1000C00043020008B91F0008430200084302000869
:1000D00043020008430200084302000843020008EC
:1000E00043020008430200084302000843020008DC
:1000F00043020008430200084302000843020008CC
:1001000043020008430200084302000843020008BB
:1001100043020008430200084302000843020008AB
:10012000430200084302000843020008430200089B
:10013000430200084302000843020008430200088B
:10014000430200084302000843020008430200087B
:10015000430200084302000843020008430200086B
:10016000430200084302000843020008430200085B
:100170004302000843020008430200080000000098
:10018000430200084302000800F002F800F03CF8C7
:100190000AA090E8000C82448344AAF10107DA45E2
:1001A00001D100F031F8AFF2090EBAE80F0013F0F8
:1001B000010F18BFFB1A43F00103184798410000D4
:1001C000B8410000103A24BF78C878C1FAD8520765
:1001D00024BF30C830C144BF04680C6070470000C1
:1001E0000023002400250026103A28BF78C1FBD840
:1001F000520728BF30C148BF0B6070471FB503F0DE
:100200008BFD1FBD10B510BD00F001F91146FFF7C1
:10021000F5FF03F003FD00F01FF903B4FFF7F2FF51
:1002200003BC00F027F9000009488047094800474F
:10023000FEE7FEE7FEE7FEE7FEE7FEE7FEE7FEE796
:10024000FEE7FEE704480549054A064B70470000F3
:10025000FD370008890100086002002060080020C6
:10026000600400206004002053EA020C00F0698062
:100270002DE9F04B4FF00006002B1FBFB3FA83F5BA
:1002800003FA05F424FA05F65E4012BF1643B2FAEB
:1002900082F502FA05F4C5F120051EBF22FA05FC1D
:1002A00044EA0C04203556EA044C4FEA144418BFC3
:1002B000641C4FF000084FF00009904271EB030CF2
:1002C00039D3002919BFB1FA81F701FA07F6B0FA5C
:1002D00080F700FA07F6C7F120071EBF20FA07FCD7
:1002E00046EA0C062037B6FBF4FCA7EB0507103FE7
:1002F00007F01F0BCBF120060CFA0BFB2CFA06F6CD
:1003000044BFB3460026202FA4BF5E464FF0000B2B
:100310005BEA060C08BF4FF0010B19EB0B09ABFBB6
:10032000027C48EB0608C01B06FB02CC0BFB03CC8F
:1003300071EB0C01C1E70B46024641464846BDE859
:10034000F08B13B54FF000004FF00001AFF30080C9
:10035000BDE81C40704710B5203AC0F00B80B1E8F2
:100360001850203AA0E81850B1E81850A0E81850EA
:10037000BFF4F5AF5FEA027C24BFB1E81850A0E8F3
:10038000185044BF18C918C0BDE810405FEA827C0D
:1003900024BF51F8043B40F8043B08BF7047D20724
:1003A00028BF31F8023B48BF11F8012B28BF20F8C5
:1003B000023B48BF00F8012B70474FF0000200B528
:1003C000134694469646203922BFA0E80C50A0E878
:1003D0000C50B1F12001BFF4F7AF090728BFA0E826
:1003E0000C5048BF0CC05DF804EB890028BF40F8F2
:1003F000042B08BF704748BF20F8022B11F0804F34
:1004000018BF00F8012B704770477047704775465A
:1004100000F02CF8AE4605006946534620F0070070
:10042000854618B020B5FFF70DFFBDE820404FF01E
:1004300000064FF000074FF000084FF0000B21F0CE
:100440000701AC46ACE8C009ACE8C009ACE8C0099B
:10045000ACE8C0098D46704710B50446AFF3008084
:100460002046BDE81040FFF7D8BE000000487047A6
:100470000002002001491820ABBEFEE72600020062
:100480007047000001221103014800F072BA000019
:100490000014024001221103014800F06ABA000072
:1004A0000014024000224FF48051014800F061BA6C
:1004B000001402400348007808B1FFF7F3BFFFF7CC
:1004C000E9BF000010000020FEE72DE9FF5F99461C
:1004D00092468B46812003F01BFB8046832003F06D
:1004E00017FB0746852003F013FB0646872003F021
:1004F0000FFB0546892003F00BFB04468D2003F01B
:1005000007FBC8F3021108F00F0201EB810102EBB7
:1005100041020F990A70C7F3021207F00F0102EBB4
:10052000820201EB42020E990A70C6F3011206F034
:100530000F0102EB820201EB420289F80020C5F3B1
:10054000011205F00F0102EB820201EB42028AF870
:100550000020C4F3001204F00F0102EB820201EB51
:10056000420200F00F01000900EB80008BF8002030
:1005700001EB400000990870BDE8FF9F10B5084CE2
:1005800000220421204600F0F4F900220121204637
:1005900000F0EFF90021BDE810408E2003F026BBEB
:1005A000000402407CB51B4801681B4CE268891AB4
:1005B000B1F57A7F2CD30068A11DE060481ECDE91B
:1005C0000001431E821EC11E001FFFF77EFF207820
:1005D000124DA0B9E01D22790178914218D14178DD
:1005E0006279914214D18078A179884210D1012694
:1005F0002E7044F620610A4800F089F826700848F9
:1006000000F064F8002803D0022028700020207039
:100610007CBD00000800002014000020A000002085
:10062000E80100202DE9F0478046DDE908900F46FB
:100630000A24B0FBF4F104FB1101B0FBF4F041EA31
:100640000010C1B21D461646802003F0CFFAB9FB58
:10065000F4F1B9FBF4F004FB119141EA0010C1B2CE
:10066000822003F0C3FAB5FBF4F0B5FBF4F104FB10
:10067000105040EA0110C1B2842003F0B7FAB6FB73
:10068000F4F0B6FBF4F104FB106040EA0110C1B2D3
:10069000862003F0ABFAB7FBF4F0B7FBF4F104FBF0
:1006A000107040EA0110C1B2882003F09FFAB8FB35
:1006B000F4F1B8FBF4F004FB1181BDE8F04741EA26
:1006C0000010C1B28C2003F091BA704710B504003D
:1006D0000CD0207A50B100F051F9216800228142FB
:1006E00006D9C9430844401C616803E0012010BDDD
:1006F000401A6168884201D32272F7E7002010BDDA
:10070000002803D00021016041600172704770B57C
:100710000D46040005D000F031F9C4E900050120C0
:10072000207270BD72B6FEE790F83510022903D032
:100730008021416501207047052180F8351000684F
:10074000016821F0010101600020704790F8350038
:100750007047000070B5044600F010F90546601CB3
:1007600002D004480078044400F008F9401BA0427D
:10077000FAD370BD000000202DE9F84FDFF8BCA1CE
:100780000022012503264FF00F090AF1040BAAF1FC
:10079000040E00BF0B6805FA02F42340A34270D197
:1007A0000F7907F00307012F01D0022F16D18768B8
:1007B0004FEA420806FA08FC27EA0C07D1F80CC0F9
:1007C0000CFA08FC4CEA070CC0F808C04768A743BD
:1007D0000C79C4F3001494403C4344600C79E44326
:1007E000A4070AD0C4684FEA420C06FA0CF7BC43CF
:1007F0008F6807FA0CF72743C7600C7904F00304ED
:10080000022C12D1D40800EB840CDCF820405707EE
:10081000FF0E09FA07F824EA0804D1F8108008FA54
:1008200007F848EA0408CCF8208004684FEA420C34
:1008300006FA0CF7BC430F7907F0030707FA0CF729
:10084000274307604C6814F4403F70D03C4C276845
:1008500047F480472760246822F0030704F48044AB
:100860000094384C07EB040CDCF8084897074FEA73
:10087000177809FA08F7BC43334FB84202D1002772
:1008800024E054E0314FB84201D101271EE0304F3F
:10089000B84201D1022719E02E4FB84201D10327F7
:1008A00014E02D4FB84201D104270FE02B4FB8427E
:1008B00001D105270AE02A4FB84201D1062705E0F9
:1008C000284FB84201D1072700E0082707FA08F7A8
:1008D0002743CCF80878DAF800405746D1F804C02E
:1008E0009C435FEACC2C00D51C433C60DBF8004005
:1008F0005F46D1F804C09C435FEA8C2C00D51C43B2
:100900003C60DEF800407746D1F804C09C435FEAC3
:100910008C3C00D51C433C60084F083F3C68D1F834
:1009200004C09C435FEACC3C00D51C433C60521C95
:10093000102AFFF42FAFBDE8F88F0000083C0140FB
:1009400044380240003001400000024000040240F0
:1009500000080240000C0240001002400014024057
:1009600000180240001C02400069084000D001202D
:1009700070470AB1816170470904FBE7014880684C
:100980007047000000000020704770472DE9F047D5
:10099000026800215368C66A90F83E4090F83D50C6
:1009A000102C12D0402C10D0046C002C7DD0546937
:1009B000E443A6077AD4DE43B60577D4036C03B1CB
:1009C0009169BDE8F04701F087BF976951694FF41D
:1009D0002A0CC9435FEAC1784FF02A4904D0664522
:1009E0002AD04E4528D010E0DE43B6050DD4C16AAA
:1009F000614501D1012103E0C16A494501D10821C6
:100A0000C162BDE8F04701F053BE0E0716D4DE43C5
:100A1000B60513D4416CC9B21161416B09B1C96B00
:100A200029B9816B002907D0C96B002904D000685F
:100A3000416841F400614160BDE8F0878E0706D44B
:100A4000DE43B60503D4BDE8F04701F0A5BDFE4383
:100A5000526876074FEA02521DD4002AECDB0A06E0
:100A600008D4DA43520505D4490705D5BDE8F04757
:100A700001F036BD4907DFD4D9438905DCD4212DE7
:100A800005D0402CD8D1BDE8F04701F057BEBDE8F5
:100A9000F04701F0E3BC002ACEDB4A060BD4DA4370
:100AA000520508D4490708D501E00DE00EE0BDE885
:100AB000F04701F011BC4907BED4D9438905BBD426
:100AC000BDE8F04701F09FBB916970E7E10606D4ED
:100AD000D943890503D4BDE8F04701F021BF28219F
:100AE000212D27D0292D25D0650655D4DD436D0550
:100AF00052D4640752D590F83D30448D002C9BD0E1
:100B00001269446A2270426A521C4262428D521E2D
:100B10004285428D002A8FD12A2B8DD102685368DD
:100B200023F4806353602222026380F83D1000F0BA
:100B300095FB81E7250623D4DD436D0520D46407AA
:100B400020D590F83D30448D002CF2D0446A2478B2
:100B50001461426A521C4262428D521E4285428D8D
:100B6000002AE6D1292BE4D10268536823F480637C
:100B700053602122026380F83D1000F070FB5BE7B8
:100B80006107D6D4D9438905D3D4418D0029D0D06B
:100B9000416A097811610AE06107CAD4D94389051D
:100BA000C7D4418D0029C4D01169426A1170416ACD
:100BB000491C4162418D491E41853DE77047000057
:100BC00070B5040025D094F83D00002520B984F8C4
:100BD0003C50204600F006FB242084F83D002068AD
:100BE000016821F0010101602068016841F40041C1
:100BF00001602068016821F40041016000F064FC9C
:100C00004D4A6168914201D84C4900E04C49884204
:100C100001D2012070BD4B492368B0FBF1F15E6841
:100C200026F03F060E435E606368934206D94FF498
:100C3000967359434FF47A73B1FBF3F12368491C5F
:100C40001E6A26F03F06314319626168914210D84E
:100C50004900401EB0FBF1F2521CC2F30B02042A01
:100C600001D2042022E0B0FBF1F0401CC0F30B00E5
:100C70001CE0A268F2B301EBC10303EB0116431EB3
:100C8000B3FBF6F35B1C43F480431B0549D092B3DE
:100C900001EBC10202EB0111401EB0FBF1F0401C60
:100CA000C0F30B0040F4804040F400402168CA6962
:100CB0004CF6FF739A431043C861D4E9071001430F
:100CC0002068026822F0C00211430160D4E90301E8
:100CD00001432068826848F2FF339A4311438160E0
:100CE000D4E9050108432168CA6822F0FF021043D5
:100CF000C86001E00EE016E02068016841F00101E3
:100D000001602564202084F83D00256384F83E506E
:100D1000002070BD01EB4106431EB3FBF6F35B1CE4
:100D2000B3E70120C2E701EB4101401EB0FBF1F047
:100D3000401CC0F30B00B7E7A086010080841E00B2
:100D400000093D0040420F002DE9FF4F81B0894668
:100D50000446FFF713FE054694F83D004FF00008E7
:100D600020287DD11923012250492046009501F009
:100D7000ABFE002874D194F83C00012870D001200B
:100D800084F83C0020680168C90703D1016841F07C
:100D9000010101602068016821F4006101602420E4
:100DA00084F83D00002626644148E0624FF0011BB4
:100DB00020272068016841F48071016000950022BD
:100DC00059462046049B01F07FFE50B12068006820
:100DD000C00502D54FF400702064032005B0BDE8C3
:100DE000F08F216809F0FE000861FFF7C7FD216858
:100DF000054648694969C0F34000C1F380214FF0BE
:100E0000A00A0FE0FFF7BAFD411B0498814200D809
:100E100008B984F83DA0216848694969C0F34000D9
:100E2000C1F3802194F83D20A02A02D008B90029FE
:100E3000E8D084F83D7020684169C943890716D419
:100E4000016841F4007101602068416980691923DB
:100E5000012216492046009501F036FEB8B900E09F
:100E600021E084F83D7084F83C600020B6E701681A
:100E700041F40071016021686FF4806048611923BA
:100E800001220A492046009501F01EFE08B101200A
:100E9000A4E7039808F1010880458AD384F83D70DF
:100EA00084F83C60F3E7022098E70000020010009D
:100EB0000000FFFF70477047704700002DE9F84FB2
:100EC0001F4690468A460446DDF82890FFF756FDF7
:100ED000054694F83D0020287FD11923012240497E
:100EE0002046009501F0F0FD002876D194F83C00F2
:100EF000012872D0012084F83C0020680168C907ED
:100F000003D1016841F0010101602068016821F40A
:100F100000610160212084F83D00102084F83E002B
:100F200000262664C4F824806785608D20852D48BE
:100F3000E0622B464A465146204601F041FA90B9FC
:100F4000206841698069009036E02A46494620467B
:100F500001F06CFE50B1206C042804D120680168B7
:100F600041F4007101600120BDE8F88F606A2168DA
:100F700000780861606A401C6062618D491E61856D
:100F8000218D491E89B2218522685369DB435B07A5
:100F90000BD451B100781061606A401C6062608DB2
:100FA000401E6085208D401E20852A4649462046E9
:100FB00001F064FD0028CED1208D0028C5D154F861
:100FC0003D0B016841F400710160202004F81E0906
:100FD000E67766770020C7E7FFE70220C4E7000056
:100FE000020010000000FFFF704770472DE9FF4F1F
:100FF00083B09A46DDE9119793460446DDF84080B8
:10100000FFF7BCFC054694F83D00202870D1192359
:10101000012271492046009501F056FD0028F5D1C6
:1010200094F83C00012863D0012084F83C0020683B
:101030000168C90703D1016841F00101016020681E
:10104000016821F400610160222084F83D00402005
:1010500084F83E0000262664C4F82480A4F82A9070
:10106000608D20855D48E062CDE9007553465A46A3
:101070002046049901F0B2FB00287CD1208DD0B12C
:10108000012821D00228206824D04169806900907D
:10109000208D032869D801282BD0514902283B46CE
:1010A0004FF00002009559D08846204601F00CFD13
:1010B000002860D13CE020684169816900910168A5
:1010C00041F40071016077E02068016821F48061DB
:1010D0000160F0E7016821F4806101602068016827
:1010E00041F400610160206841698069009063E01B
:1010F0006FE02A463946204601F065FD98BB20681E
:101100000069616A08704EE02068016841F400716E
:10111000016020680069616A0870606A401C606252
:10112000218D491E2185618D491E6185216838E028
:101130002068016821F48061016020680069616AAB
:101140000870606A401C6062208D401E2085608DA2
:10115000401E60853B46002241460095204601F036
:10116000B3FC00B9D0E706E0FFE72A46394620463F
:1011700001F029FD18B1012007B0BDE8F08F20680B
:101180000069616A0870606A401C6062218D491EB6
:101190002185618D491E618521684A69D2435207C4
:1011A0000AD409690170606A401C6062208D401E8B
:1011B0002085608D401E6085208D00287FF468AFFB
:1011C000202084F83D0084F83E6084F83C600020D4
:1011D000D2E70220D0E70000020010000000FFFF6D
:1011E0000400010010B586B0044614216846FFF7DC
:1011F000E4F817492068884227D116480021026880
:1012000042F0200202600068122200F020000590E7
:101210000320CDE90210CDE90002042004906946C4
:101220000D48FFF7A9FA0B481030016841F480011E
:1012300001600068002200F4800005901146212022
:1012400000F076F8212000F065F806B010BD00002F
:101250000058004030380240001402407047704788
:1012600002488168027811448160704700000020C4
:101270000B4810B5016841F400710160016841F448
:1012800080610160016841F480710160032000F019
:101290006FF80F2000F006F800F024F8002010BDD1
:1012A000003C024070B50D4D04464FF47A71287829
:1012B000B1FBF0F00A490968B1FBF0F000F041FC25
:1012C00048B9102C07D200222146501E00F030F8F9
:1012D00000206C6070BD012070BD00000000002087
:1012E0000C0000200A4808B5016841F48041016003
:1012F000006800F4804000900548001F016841F03C
:1013000080510160006800F08050009008BD00002E
:1013100044380240002809DB00F01F0201219140FF
:101320004009800000F1E020C0F800117047000083
:10133000F0B40E4B1B680C46C3F30223C3F1070540
:10134000042D00D90425191D072901D2002300E02E
:10135000DB1E012606FA05F1491E214099409E40F8
:10136000761E16403143F0BC02F0BABB0CED00E033
:10137000064900F0070208684FF6FF03184040EAEC
:101380000220034A10430860704700000CED00E0A3
:101390000000FA052DE9F0470E46050065D0DFF89C
:1013A0001481D8F80000F7B200F00700B04207D26D
:1013B00088F80070D8F8000000F00700B04254D15F
:1013C00028683D4C810712D5400703D5206840F4BA
:1013D000E05020602878000703D5206840F4604082
:1013E00020602068A96820F0F00008432060287879
:1013F000C0072DD0304968680839012812D002286A
:1014000013D0032811D00968890700292DDA216833
:1014100021F0030101432160FFF7B0FA814641F258
:10142000883A0EE009688903EFE709688901ECE76B
:10143000FFF7A4FAA0EB0901514502D90320BDE84A
:10144000F0872068696800F00C00B0EB810FEFD1E5
:10145000D8F80010404601F00701B14207D90770E3
:10146000006800F00700B04201D00120E7E72878CB
:10147000400705D52068E96820F4E0500843206063
:101480002878000706D52068296920F4604040EAE2
:10149000C100206000F028F82168084AC1F3031158
:1014A000515CC8400649086006480068FFF7FAFE2C
:1014B0000020C4E7003C024008380240223D0008FA
:1014C0000C00002004000020044805490068096859
:1014D000044AC1F38221515CC84070470C000020CF
:1014E00008380240323D0008154810B5006810F079
:1014F0000C02144813D01449042A0FD0082A0ED124
:101500000F4C241F2268236802F03F025B0207D5BC
:101510002068C0F38810A0FB010106E0084610BD5A
:101520002168C1F38811A1FB00010023FEF79CFE96
:101530002168C1F30141491C4900B0FBF1F010BD25
:10154000083802400024F40040787D012DE9F84F6E
:1015500004006ED02078DFF84C93C007A9F1040591
:101560004AD009F104000168C1F38101012908D0C2
:101570000068C0F3810002280AD1D9F800004002B7
:1015800006D52868800337D560680028E1D033E0AD
:101590006068B0F5803F10D0B0F5A02F286810D05B
:1015A00020F480302860286820F48020286060685B
:1015B000A8B1FFF7E3F906460DE0286840F4803053
:1015C000F4E740F480202860F7E700BFFFF7D6F982
:1015D000801B642873D828688003F7D50CE0FFF7D8
:1015E000CDF9064605E000BFFFF7C8F9801B642867
:1015F000F0D828688003F7D42078DFF8AC82800721
:101600004FF0000A3ED5A748001D016811F00C0FED
:1016100008D00068C0F3810002280BD1D9F800007F
:10162000400207D42868800716D5E068012800D159
:1016300012E033E1E068B8B10120C8F80000FFF71C
:101640009DF9064605E000BFFFF798F9801B0228C8
:10165000C0D828688007F7D52868216920F0F800ED
:1016600040EAC10028600DE0C8F800A0FFF786F945
:10167000064604E0FFF782F9801B02281FD828687D
:101680008007F7D42078000722D5864F8748616904
:10169000703771B101210160FFF770F9064604E06F
:1016A000FFF76CF9801B022809D838688007F7D546
:1016B0000EE0C0F800A0FFF761F9064605E082E001
:1016C000FFF75CF9801B02287DD838688007F7D4C3
:1016D0002078400768D5DFF8CCB100270BF13C0B30
:1016E000DBF80000C0000BD4DBF8001041F08051A3
:1016F000CBF80010DBF80000012700F080500090CC
:101700006B4E3068C00510D4306840F48070306093
:10171000FFF734F9009005E0FFF730F90099401A1F
:10172000022850D83068C005F6D55E4EA0686C36E9
:1017300001280FD00528306810D020F0010030605B
:10174000306820F004003060A068B8B1FFF716F9E7
:1017500000900FE0306840F00100F4E740F0040032
:101760003060F7E7FFF70AF90099411A41F2883033
:10177000814266D830688007F4D50EE0FFF7FEF8A6
:10178000009007E0FFF7FAF80099411A41F288301B
:10179000814256D830688007F4D42FB1DBF80010AE
:1017A00021F08051CBF80010A069C8B33D49091D54
:1017B0000968C1F3810102294AD00228504607D0A6
:1017C000C8F8600000E03CE0FFF7D8F804463BE0D2
:1017D0004746C8F86000FFF7D1F8064605E000BFAD
:1017E000FFF7CCF8801B02282BD828688001F7D49B
:1017F000D4E907010843A16A2E4A490802EB0141D6
:10180000626A41EA8211084394F82C1040EA0161AF
:10181000C9F8001001203866FFF7B0F8044606E06A
:101820003EE000BFFFF7AAF8001B022809D828688D
:101830008001F7D534E000BFFFF7A0F8001B0228B5
:1018400002D90320BDE8F88F28688001F4D427E08E
:101850000128F7D0D9F80000E26900F48001914234
:101860001CD1226A00F03F01914217D147F6C071A6
:10187000626A0140B1EB821F10D1A26A4FF0FF33C0
:1018800000F4403103EB5202B1EB024F06D194F861
:101890002C1000F07060B0EB016F01D00120D1E797
:1018A0000020CFE70438024000004742800E474244
:1018B000007000400000FFFF70B5040009D0606AAE
:1018C000002540B125616561A56294F8510040B1E1
:1018D0000CE0012070BD6068B0F5827FF4D0E56156
:1018E000F2E784F85050204600F044F8022084F8D3
:1018F00051002068016821F040010160A088218921
:1019000000F4827001F404410843A18901F40061EC
:101910000843217C01F002010843217D01F001010F
:101920000843218B01F400710843217F01F0380145
:10193000084394F8201001F080010843218D01F440
:101940000051084321680860A069042101EA1040A1
:1019500094F8241001F010010843216848602068C1
:10196000C16921F40061C1616565012084F85100FD
:10197000002070BD10B586B0044614216846FEF7FD
:101980001CFD13492068884220D1124800210268BA
:1019900042F480520260006800F4805005900D48C7
:1019A0001438026842F001020260006800F0010091
:1019B0000590E02000900220CDE901010320039072
:1019C0000520049069460448FEF7D6FE06B010BD17
:1019D0000030014044380240000002402DE9F84F39
:1019E000044690F8500000271D46164689460128F7
:1019F0000DD04FF0010B84F850B0FEF7BFFF8046CA
:101A000094F85100BA46012804D0022793E002203E
:101A1000BDE8F88FB9F1000F73D0002E71D003200C
:101A200084F85100C4F854A0C4F83090A686E68625
:101A3000C4F838A0A4F83CA0A4F83EA0C4F844A080
:101A4000C4F840A0A068B0F5004F09D12068016833
:101A500021F0400101602068016841F4804101608B
:101A600020680168490603D4016841F04001016023
:101A7000E068B0F5006F606803D030B3012E24D069
:101A800041E008B1012E1CD1206B21680088C8609C
:101A900006E020688168890709D5216B0988C16043
:101AA000206B801C2063E08E401EE08609E0FEF77C
:101AB00065FFA0EB0800A84202D3681C01D031E00A
:101AC0007DB3E08E0028E4D120E0206B216800780F
:101AD000087306E020688168890709D5216B0978B9
:101AE0000173206B401C2063E08E401EE0860AE0FC
:101AF000FEF744FFA0EB0800A84203D3681C02D005
:101B000010E017E06DB1E08E0028E3D1424629468F
:101B1000204601F0A9FD08B120206065A06818B139
:101B200006E0FFE7032706E02068C16880680090B0
:101B3000606D00B1012784F851B084F850A0384698
:101B400066E710B5401EB0F1807F01D3012010BDC3
:101B50004FF0E02460610F21601701F0C1FF002009
:101B6000A06107202061002010BD000070B590F832
:101B70003C20012A32D0012480F83C40022280F827
:101B80003D2003685A689D6822F070060A68324357
:101B90005A60134B02689A4214D0B2F1804F11D0B0
:101BA000104B9A420ED0104B9A420BD00F4B9A42D8
:101BB00008D00F4B9A4205D00E4B9A4202D00E4BE2
:101BC0009A4204D1496825F080031943916080F856
:101BD0003D40002180F83C10084670BD022070BDD9
:101BE000000001400004004000080040000C0040DC
:101BF00000040140004001400018004010B50400FE
:101C000003D094F83D0010B107E0012010BD002082
:101C100084F83C00204600F01FF8022084F83D00C4
:101C2000211D206801F0F2FD012084F8460084F8AF
:101C30003E0084F83F0084F8400084F8410084F8B6
:101C4000420084F8430084F8440084F8450084F896
:101C50003D00002010BD000008B50C4A01680C488A
:101C6000914207D1016841F002010160006800F073
:101C7000020009E0074A914207D1016841F01001D2
:101C80000160006800F01000009008BD00040040F2
:101C9000403802400010004070B5044690F83C0007
:101CA0000025012817D0012684F83C60022084F822
:101CB0003D002068826822F0770222F47F42826031
:101CC0000868502838D00DDC20284FD005DC90B3B0
:101CD000102811D14AE0022070BD302846D040289B
:101CE0000AD13BE060282FD070280DD0B0F5805F7E
:101CF00003D0B0F5005F12D0012584F83D600020CC
:101D000084F83C00284670BDCB68D1E901212068E9
:101D100001F0EDFD2068816841F0770109E0CB68B2
:101D2000D1E90121206801F0E2FD2068816841F4D9
:101D300080418160E1E719E0CA684968206801F0E4
:101D4000ABFE5021206806E0CA684968206801F0AF
:101D5000B4FE6021206801F0D4FDCEE7CA6849686E
:101D6000206801F099FE40212068F4E722680146CE
:101D70001046F0E710B586B0044614216846FEF719
:101D80001CFB0D492068884214D10C4800210268D0
:101D900042F004020260006800F004000590402058
:101DA00000900220CDE90101CDE903106946044805
:101DB000FEF7E2FC06B010BD0004004030380240DF
:101DC0000008024070B5044690F83C0000260D461D
:101DD00001280FD0012084F83C006AB1042A1DD0EC
:101DE000082A2FD00C2A3FD00126002084F83C007E
:101DF000304670BD022070BD206801F08BFD206868
:101E0000816941F0080181612068816921F0040144
:101E10008161206881692A69114311E0206801F01D
:101E2000A9FD2068816941F40061816120688169B0
:101E300021F480618161206881692A6941EA022177
:101E40008161D2E7206801F0CBFD2068C16941F0D3
:101E50000801C1612068C16921F00401C1612068E5
:101E6000C1692A69114311E0206801F0EDFD206885
:101E7000C16941F40061C1612068C16921F48061D8
:101E8000C1612068C1692A6941EA0221C161ACE7E8
:101E900010B5040003D094F83D0010B107E0012014
:101EA00010BD002084F83C00204600F01EF80220FF
:101EB00084F83D00211D206801F0A8FC012084F871
:101EC000460084F83E0084F83F0084F8400084F81F
:101ED000410084F8420084F8430084F8440084F808
:101EE000450084F83D00002010BD704710B5044641
:101EF000022249B104290ED0082913D094F84100D8
:101F0000012816D0012010BD94F83E000128F9D117
:101F100084F83E200FE094F83F000128F2D184F8C5
:101F20003F2008E094F840000128EBD184F84020DD
:101F300001E084F841200122206801F0CBFC164921
:101F40002068164A884201D0904203D1436C43F482
:101F5000004343642068884213D0B0F1804F10D012
:101F60000F4988420DD00F4988420AD00E49884255
:101F700007D0904205D00D49884202D00C498842D2
:101F800004D1816801F00701062903D0016841F0FE
:101F900001010160002010BD00000140000401406B
:101FA0000004004000080040000C004000400140D8
:101FB00000180040FEE700000148FEF7E7BC000003
:101FC000AC00002038B5806B002190F83D202B4BF1
:101FD00046F2A8141B68B3FBF4F3C3EBC30303EB93
:101FE000830300933BB15B1E009303681B689B0552
:101FF00005D5009BF6E7036C43F020030364436BB5
:1020000003B1D963836B03B1D96303681C6824F4FB
:1020100080641C604185436B03B11965836B03B118
:10202000196503681C6824F001041C6090F83D40A9
:102030002023602C0BD0282434EA02020FD080F831
:102040003D3080F83E1000BFFEF7B8FD38BD80F887
:102050003D3080F83E100164FEF796FC38BD026802
:10206000136843F0010313600268136843F480634C
:102070001360016380F83D40E6E700000C0000209B
:1020800070B5044690F83D0094F83E10102901D038
:10209000402906D1222804D121680A6822F400626E
:1020A0000A60282131EA00024FF000054FF02006B7
:1020B00026D021684968090505D4602803D084F832
:1020C0003D6084F83E50256320684168090537D596
:1020D000416821F400614160606B90F835203C4913
:1020E000012A11D00165606BFEF71EFB38B3206832
:1020F000016821F00101016084F83D60606B1CE023
:10210000256384F83D10DFE7A06B0165A06BFEF747
:102110000BFBA0B120684169C943490605D4006999
:10212000616A0870606A401C60622068016821F082
:102130000101016084F83D60A06B016D884710E0EB
:1021400094F83D10602910D04169C943490605D46F
:102150000069616A0870606A401C60622046FEF790
:102160002DFD206CC1071CD115E084F83D6025646D
:102170004169C943490605D40069616A0870606A0B
:10218000401C60622068016821F001010160204666
:10219000FEF7FAFBE5E7810703D4410701D4000706
:1021A00004D52068416821F4E061416094F83D0065
:1021B000216C49070BD5282809D10648E062256320
:1021C00084F83D6084F83E502046FEF773FE70BDF3
:1021D000C51F00080000FFFF01684A69D24352058D
:1021E0000FD46FF480624A61002140F8301F202232
:1021F00042738173026942F004020261017301209B
:1022000070470020704710B5C26A438D0168042BE7
:1022100006D0438D032B08D0438D022B1DD012E036
:102220004A6822F480624A600CE04B6823F48063C1
:102230004B60042A06D0022A04D001680A6822F4FE
:1022400080620A6001680969426A1170416A491C2A
:102250004162418D491E418510BD012A30D0102AAE
:102260002ED0042A30D0022A2ED00A6842F40072FE
:102270000A6001680969426A1170416A491C416239
:10228000428D521E4285026812690A70416A491CD9
:102290004162418D491E418501684A6822F44072BD
:1022A0004A60202180F83D1090F83E200021402A0D
:1022B00080F83E100CD012210163FEF7FCFD10BD2A
:1022C0000A6822F48062D3E70A6842F48062CFE7AA
:1022D0000163FEF789FE10BD38B590F83D10222944
:1022E0000FD1418D03290DD901680969426A117026
:1022F000416A491C4162418D491E4185418D032936
:1023000006D038BDC26A022A02D0012906D029B1FE
:102310000068416821F48061416038BD274946F278
:10232000A81300220968B1FBF3F101EB81010091D0
:1023300001682023009C641E009422D00C68A40530
:10234000F8D40C6824F480640C6001684C6824F4B0
:10235000E0644C6001680969446A2170416A491C63
:102360004162418D491E418580F83D3090F83E1014
:1023700080F83E2040291DD012210163FEF79BFD0D
:1023800038BD046C44F0200404644C6824F4E06418
:102390004C6001680969446A2170416A491C4162C4
:1023A000418D491E418580F83D3080F83E20FEF782
:1023B00005FC38BD0263FEF717FE38BD0C00002097
:1023C000F8B50446C06A1E460D461746082807D0D1
:1023D000012805D010F5803F02D0206B122804D1CF
:1023E0002068016841F480710160134600224FF0BB
:1023F00001112046009600F067FB40B1206800689C
:10240000C00502D54FF4007020640320F8BD206998
:10241000B0F5804F0ED00620216800EAD51040F0BC
:10242000F000086133463A460B49204600F080FB35
:1024300078B902E005F0FE0000E0E8B2216808612A
:10244000054933463A46891F204600F071FB0028B3
:10245000DCD00120F8BD00000800010010B5C26A00
:1024600090F83D1021290BD1418D51B1416A02688C
:1024700009781161416A491C4162418D491E4185BB
:1024800010BD20230021082A13D0202A11D012F5D4
:10249000803F0ED00268546824F4E0645460112236
:1024A000026380F83E1080F83D3000BFFEF704FD67
:1024B00010BD0268546824F4E06454600268146833
:1024C00044F400741460016380F83D3090F83E20BD
:1024D00080F83E10402AE9D1FEF787FD10BD0000CC
:1024E00010B590F83D1090F83E30C26A048DB4B13A
:1024F000212903D0402B11D122290FD1418DE1B3E5
:1025000090F83E10402942D0416A02680978116172
:10251000416A491C4162418D491E418510BD2129F6
:10252000E8D120230021082A13D0202A11D012F547
:10253000803F0ED00268546824F4E0645460112295
:10254000026380F83E1080F83D3000BFFEF7B4FC17
:1025500010BD0268546824F4E06454600268146892
:1025600044F400741460016380F83D3090F83E201C
:1025700080F83E10402AE9D100E002E0FEF735FD88
:1025800010BD0068416821F48061416010BDBDE864
:10259000104000F0D3B8000078B590F83E50C26A01
:1025A000036B90F83D6000240168222E7AD1066DFD
:1025B0000EB9402D76D0056D1DB90569B5F5404FB2
:1025C00009D0458D05B3468D384D012E0ED0438D73
:1025D000022B3AD05DE04A698A6900920A6842F4A7
:1025E00080720A60016D491C016578BDAA4213D151
:1025F0000A6822F480620A6001684A68120503D5FD
:102600000A6822F4806216E04A698A6900920A68C0
:1026100042F400720A6039E0082A10D0202A0ED055
:10262000122B0AD0042A03D0022A01D0102AE7D1A3
:102630000A6842F480620A6024E0012AE0D00A6855
:1026400022F480620A600168DEE7042A21D0022AAF
:102650001FD0102A1DD00B6823F480630B60016823
:102660000B6843F400630B6001684B681B0509D5D8
:10267000AA4212D0012A10D0082A0ED0102A0CD05B
:10268000202A0AD001684A6989690091046578BDE9
:1026900008E00B6843F48063E5E74A6842F480523F
:1026A0004A60EFE7486988690090F0E70000FFFFA3
:1026B00090F83E10402910D00169B1F5804F19D033
:1026C000016DA9B3016D012910D1416C5FF0F102D8
:1026D00001F4407142EAD11106E0016D0029416C1C
:1026E00005D0C9B241F0010100680161704701F0F5
:1026F000FE01F9E790F83D102129416C09D0C9B2DB
:1027000041F0010102681161416B29B1C96B49B9FE
:1027100002E001F0FE01F5E7816B0029E6D0C96B0C
:102720000029E3D00068416841F4006141607047CE
:10273000FFE7416CF02201F44071CBE710B590F84F
:102740003D10026D22B3026D012A2FD0026D022AC4
:102750001DD122292FD0428D0AB1212933D0428D9B
:10276000002A14D1212912D101684A6822F4E062BA
:102770004A6001680A6842F400720A60002101633D
:10278000202280F83D2080F83E10FEF72EFC10BD80
:10279000C16C0129816C02D0C1F3072108E00268F5
:1027A000C9B21161016D891C016510BD816CC9B28E
:1027B0000268116104E001680A6842F480720A60EC
:1027C000016D491CF0E7416A026809781161416AAC
:1027D000491C4162418D491E418510BD2DE9F84FCC
:1027E0000446006889460B9D01689846174641F4E7
:1027F000806101602068016841F48071016000958A
:102800004FF0011B0022594620460A9B00F05CF95C
:102810004FF4007A40B120680068C00501D5C4F8C3
:1028200040A00320BDE8F88F216809F0FE00086190
:102830002B46284920460A9A00F07AF9F0BB206816
:102840004169806900902A4620460A9900F0EEF915
:1028500040B1206C04283AD12068016841F400712D
:10286000016034E0FEB2B8F1010F09D02168380AE6
:1028700008612A4620460A9900F0D8F90028E8D1D4
:10288000206806612A4620460A9900F0CFF9002800
:10289000DFD12068016841F4807101600095002259
:1028A000594620460A9B00F00FF90028B3D1216851
:1028B00009F0FF0040F00100086100E007E02B464E
:1028C000044920460A9A00F033F90028AAD00120D2
:1028D000A8E700000200010038B50C4690F83D2042
:1028E00000212825954302680B4605D0516991695E
:1028F000009180F83C3038BD556825F480655560FE
:10290000E243540700D50121120601D5828900E077
:10291000028B80F83C3092B2FEF737F838BD0000E9
:10292000F8B590F83D6004460068416821F4E06124
:1029300041602068002541690091016841F0010172
:1029400001602068016821F48061016020684168AD
:10295000090520D5474F222E48D02A2E46D0616B3C
:10296000096849686185618D19B1216C41F00401E4
:102970002164416821F400614160606BFDF7E6FE6F
:10298000012808D0606B0765606BFDF7CDFE10B1C4
:10299000606B016D8847608D08B320684169C94349
:1029A000490708D40069616A0870606A401C606267
:1029B000608D401E608520684169C943490608D47E
:1029C0000069616A0870606A401C6062608D401E28
:1029D0006085608D18B1206C40F004002064206C8C
:1029E00000B32046BDE8F840FFF74ABBA16B096879
:1029F00049686185618D19B1216C41F00401216440
:102A0000416821F400614160A06BFDF79FFE012841
:102A1000C1D0A06B0765A06BFDF786FE0028BAD079
:102A2000A06BB6E72A2E06D12563282084F83D0046
:102A30002046FEF713FC94F83D10202028290DD0E5
:102A4000216B222901D0222E07D1256384F83D0075
:102A500084F83E502046FEF701FCF8BD0649E162CD
:102A6000256384F83D0084F83E502046FEF722FAA4
:102A7000F8BD0000C51F00080000FFFF70B5164636
:102A80000D4604460DE02046FFF7A6FB08B10120E5
:102A900070BD681C05D0FDF771FF801BA84207D8E8
:102AA00035B120684069C0434007ECD4002070BDB8
:102AB000002044F8300F20216173A073216941F098
:102AC000200121612073E2E72DE9F0471E46904680
:102AD0000D460446C1F30747DDF8209008E0701C5E
:102AE00006D0FDF74BFFA0EB0900B0420FD876B13E
:102AF0002068012F18D0806925EA00000004000C2E
:102B000014D000214145EAD00020BDE8F087002024
:102B100044F8300F20216173A073216941F0200136
:102B2000216120730120F0E74069E5E70121E9E731
:102B30002DE9F0479A4691460E46044600254FF08F
:102B40002008C1F3074725E020684069C0434005DD
:102B500014D42068016841F40071016021686FF4A9
:102B600080604861256384F83D8084F83E50206C85
:102B700040F00400206484F83C501FE0B9F1FF3FAE
:102B800008D0FDF7FBFEA0EB0A0149450CD8B9F1CE
:102B9000000F09D02068012F13D0806926EA0000B9
:102BA0000004000C0BD0CFE744F8305F84F80D80B0
:102BB000A573206940F02000206125730120BDE845
:102BC000F0874069EAE72DE9F041002590460E467E
:102BD0000446202717E04069C043C0060CD454F8CF
:102BE000301B6FF01000486144F810596777A577E3
:102BF000206A2062257717E0FDF7C0FEA0EB0800F1
:102C0000B04208D83EB120684169C9434906E2D4C0
:102C10000020BDE8F08144F8305F6773A573206938
:102C200040F02000206125730120F2E770B51646C0
:102C30000D4604460DE02046FFF7CEFA08B101200C
:102C400070BD681C05D0FDF799FE801BA84207D80F
:102C500035B120684069C0430006ECD4002070BD47
:102C6000002044F8300F20216173A073216941F0E6
:102C7000200121612073E2E710B510210348FDF720
:102C800073FE012800D0002010BD0000001002409B
:102C90002DE9F047FFF7F0FF3C4A0023111D1070AB
:102CA0005478A04205D10C78022C03D2641C0C701D
:102CB00000E00B7050700C78022C62D391F8018008
:102CC000642701240226324D4FF00309B8F1000FAA
:102CD0000BD04FF0050CB8F1010F0CD0B8F1020F7A
:102CE00031D0B8F1030F13D13EE0012810D14F804D
:102CF0004C70947025E010B14888E0B10AE0487942
:102D000010B14B704B7102E0192048804E709670E4
:102D1000488810B14888401E4880907804281BD00D
:102D200008282CD010282ED002282AD12878032851
:102D300027D12B7024E01020907081F80190A1F829
:102D400002C04B71E6E7012808D048880028E1D18D
:102D5000042090704B704B712C7011E00820907023
:102D60004C704F804C71D5E738B148880028D1D1DC
:102D700020209070A1F802C0CCE74B70C7E72E70FE
:102D80009370BDE8F08785F80090F9E724000020F3
:102D9000A000002010B5002000F070FFC0F38010EC
:102DA00010BD10B54021092000F07EFF0A20FDF77C
:102DB000D1FCFF2000F062FF152801D0FDF7B2FC26
:102DC0004F21082000F070FF0321092000F06CFF64
:102DD00017210A2000F068FF15210C2000F064FF85
:102DE00015210D2000F060FF4F21082000F05CFF4E
:102DF000C021BDE81040022000F056BF1CB50E48AF
:102E000001680E4CA268891A0A2913D30068A060D1
:102E1000FFF7C0FF00280DD001A9684600F010F8A8
:102E200000994FF47A72914204D90198904201D9E5
:102E3000C4E900101CBD0000080000203000002084
:102E400030B5054685B00C46002000F017FF4FF066
:102E5000FF32062103A88DE8070001230722AE21D7
:102E60000F48FEF7C3F89DF80C009DF80D10000404
:102E700040EA01209DF80E100843C0F311002860BD
:102E80009DF80F009DF81010000440EA01209DF805
:102E900011100843C0F31100206005B030BD0000E0
:102EA000AC0000201FB502460020431E0390032102
:102EB00003A88DE80B000123B4210848FEF796F81B
:102EC000BDF80C009FED061A00EE100AF8EE400A5D
:102ED0009FED040A10EE810A1FBD0000AC00002027
:102EE0000AD7A33C3393884310B54FF0FF33032236
:102EF000B4210548FDF728FF002803D0BDE81040A5
:102F0000FDF710BC10BD0000AC0000200A4810B551
:102F100001680A4CA268891AB1F5FA7F0BD30068E0
:102F2000A0600620FFF7BEFF84ED000A0720FFF730
:102F3000B9FF84ED010A10BD080000203C0000200C
:102F40002DE9F04186B014216846FDF736FA2B488A
:102F50000024016841F010010160016801F01001D6
:102F60000591016841F020010160016801F0200134
:102F70000591016841F001010160016801F0010162
:102F80000591016841F002010160016801F0020150
:102F90000591016841F0040101600068184F00F0DC
:102FA000040005900022E7213846FDF7E2FCDFF837
:102FB0005480BE14002231464046FDF7DAFC102052
:102FC000CDE900040220029069460F48FDF7D4FBCA
:102FD000E72000900125CDE9015469463846039465
:102FE000FDF7CAFB0096CDE90154694640460394BB
:102FF000FDF7C2FB06B0BDE8F081000030380240AA
:103000000004024000140240001002400D4810B5B8
:103010000B4901600C49416000214FF480428160FE
:10302000C0E9031241618161C1610162FDF7C8FD20
:10303000002803D0BDE81040FDF774BB10BD0000B0
:1030400000580040AC000020A08601000F4810B5D9
:103050000D4901604FF48271416000218160C160BF
:103060004FF400720161C0E90512C1610162416261
:1030700081620A21C162FEF71FFC002803D0BDE86F
:103080001040FDF74FBB10BD003001400001002093
:1030900010B58EB000240794089409940A940B94F8
:1030A0001C2168460C94FDF788F920481E490160F0
:1030B0000F21C0E9011444F61F61C0E90314802107
:1030C0008161FEF79BFD08B1FDF72CFB4FF48050AA
:1030D000079007A91548FEF7DFFD08B1FDF722FBB1
:1030E0001248FEF7D5FE08B1FDF71CFB2020CDE904
:1030F0000B040BA90D48FEF739FD08B1FDF712FBD3
:10310000602000904FF4FA70CDE901040022694676
:1031100006480494FEF756FE08B1FDF703FB03488A
:10312000FEF728FE0EB010BD00040040580100203C
:103130001CB500240E4800940C49019401605321F1
:10314000C0E901144FF6FF718461C160FEF756FDBE
:1031500008B1FDF7E7FA0094694605480194FEF7C7
:1031600005FD002801D0FDF7DDFA1CBD0010004070
:10317000A0010020FEE7FEE770B5002400212046F4
:1031800000F084F90025002000F006FA6D1CEDB275
:10319000802DF8D3641CE4B2082CEFD370BD00007E
:1031A00010B52D4C002240212046FDF7E2FB6420A3
:1031B000FDF7D0FA012240212046FDF7DAFB64201A
:1031C000FDF7C8FAAE2000F0D9F9D52000F0D6F905
:1031D000802000F0D3F9A82000F0D0F93F2000F0C3
:1031E000CDF9D32000F0CAF9002000F0C7F9402043
:1031F00000F0C4F9A12000F0C1F9C82000F0BEF928
:10320000DA2000F0BBF9122000F0B8F9812000F0BC
:10321000B5F9CF2000F0B2F9D92000F0AFF9F120D4
:1032200000F0ACF9DB2000F0A9F9302000F0A6F99D
:10323000A42000F0A3F9A62000F0A0F98D2000F052
:103240009DF9142000F09AF9AF2000F097F9BDE83D
:103250001040FFF791BF0000000402400246012029
:1032600000E05043491EFCD27047000070B5694829
:1032700064222DED028B0168642041436648B1FB56
:10328000F0F18DB2654909685143B1FBF0F084B2A9
:10329000012163A2084600F060F96248022303217D
:1032A0000278012000F038F92D220521012000F0DC
:1032B000FFF85D48022306210278012000F02CF976
:1032C0002D220821012000F0F3F85848022309219B
:1032D0000278012000F020F95548022301210278EC
:1032E000184600F019F93A220321022000F0E0F814
:1032F0005048022304210278184600F00DF93A22C2
:103300000621022000F0D4F84B480223072102785E
:10331000184600F001F949A20121032000F01DF92F
:10332000484E0223052196ED000A0320BCEEC00A98
:1033300010EE102A00F0F0F82E220721032000F0F2
:10334000B7F896ED000AB2EE048A0A2620EE080AC3
:103350000123BCEEC00A10EE100AB0FBF6F106FB2A
:1033600011020821032000F0D7F84322092103208D
:1033700000F09EF834A20B21032000F0EEF80323A6
:103380002A460D21184600F0C7F8252210210320F7
:1033900000F08EF82DA20121042000F0DEF82D4D62
:1033A0000223052195ED000A0420BCEEC00A10EEB0
:1033B000102A00F0B1F82E220721042000F078F83E
:1033C00095ED000A012320EE080ABCEEC00A10EEBB
:1033D000100AB0FBF6F106FB11020821042000F0F0
:1033E0009BF843220921042000F062F81AA20B2165
:1033F000042000F0B2F8022322460E21042000F03F
:103400008BF8BDEC028B2522BDE870401021042012
:1034100000F04EB830000020FFFF03003400002011
:103420003230000015000020160000201700002098
:1034300018000020190000201A000020416D623A97
:10344000000000003C000020523A00004F626A3A3F
:10345000000000004000002049523A0031B5094CFC
:10346000002220212046FDF784FA4FF0FF3301228D
:1034700069460548FEF7B2FA012220212046FDF7F1
:1034800078FA38BD000402400001002010B5B030C9
:103490000C46C0B200F072F8102040EA141000F0A0
:1034A0006DF804F00F00BDE8104000F067B80000B0
:1034B0002DE9F0410746CE004000083E801E15462B
:1034C0004FF0FF38F1B2C0B2FFF7E0FF114800241F
:1034D00000EB05152819A0F5805090F8000E00F0BB
:1034E0005BF8641CE4B2082CF4D308EB4700F1B29B
:1034F000C0B2FFF7CBFF00242819A0F5805090F848
:10350000080E00F049F8641CE4B2082CF4D3BDE8BE
:10351000F0810000643D00082DE9F04700241D46BD
:103520001646884681460A2713E0291B0A20491EB1
:10353000FFF794FEB6FBF0F0B0FBF7F107FB1102CA
:1035400008EB0400C1B248463032FFF7B1FF641CFB
:10355000E4B2AC42E9D3BDE8F08770B514460E463C
:10356000054606E03146701CC6B22846641CFFF7CB
:103570009FFF2278002AF5D170BD000010B50446E7
:10358000002280210348FDF7F4F92046BDE81040F1
:10359000FFF764BF0004024010B5044601228021F9
:1035A0000348FDF7E6F92046BDE81040FFF756BF97
:1035B000000402407047000010B500210348FEF7E8
:1035C00095FCBDE81040002000F03AB858010020FA
:1035D00070B5194E3068194CA168401A142829D3C7
:1035E0003068A060A078002520B1002000F028F805
:1035F0006570A5702078012814D0022815D0032802
:1036000018D130686168401A642813D3306860604C
:10361000607878280DD2401CC0B26070BDE8704060
:1036200000F00EB85A20607001E06570284600F086
:1036300007F8257070BD000008000020A0000020E1
:1036400010B1B42800D3B4204FF4FA6110FB01F09C
:10365000B421B0FBF1F0034900F5FA700968486342
:10366000704700005801002038B504461248134B3B
:103670000068B0FBF3F04FF47A7358430090606831
:10368000B0F5827F0DD10B460092002280212046AA
:1036900000F016F870B1606D40F020006065032006
:1036A00038BD009830B1401E009020688068C0434B
:1036B0000006F6D5002038BD0C00002000366E0153
:1036C0002DE9F8431E46914688460446089DFDF7BD
:1036D00055F9401B351AFDF751F907462548006892
:1036E000C0F3CB30684338E0701C37D0FDF746F9A3
:1036F000C01BA84203D215B1009860B32CE020682B
:10370000416821F0E00141606068B0F5827F0BD133
:10371000A068B0F5004F02D0B0F5806F04D12068EA
:10372000016821F040010160A06AB0F5005F09D195
:103730002068016821F4005101602068016841F4AB
:1037400000510160012084F85100002084F85000ED
:103750000320BDE8F8830025401E009020688168A2
:1037600038EA010004D000214945BDD10020F0E72E
:103770000121F9E70C0000207047FDF771BD000042
:1037800010B592B030216846FCF717FE14210CA842
:10379000FCF713FE17480024016841F080510160D6
:1037A000006800F0805011901348016841F4804196
:1037B00001600068069400F480401190022000909F
:1037C00001200390102004906846FDF7BFFE08B169
:1037D00072B6FEE70F20CDE90C040E940F94002181
:1037E0000CA81094FDF7D6FD002801D072B6FEE7B4
:1037F00012B010BD4038024000700040024801681D
:1038000041F470010160704788ED00E0F0B5026896
:10381000254C264D264E274F274B4FF0804CA0427B
:1038200009D0604507D0A84205D0B04203D0B842C5
:1038300001D0984204D122F0700E4A6842EA0E028A
:10384000A0421BD0604519D0A84217D0B04215D075
:10385000B84213D0984211D0184DA8420ED0184D3E
:10386000A8420BD0174DA84208D0174DA84205D04A
:10387000164DA84202D0164DA84203D122F440753D
:10388000CA682A434D6922F080022A4302608A688E
:10389000C2620A688262A04201D0984201D10969DD
:1038A000016301214161F0BD0000014000040040BE
:1038B00000080040000C00400004014000400140AE
:1038C000004401400048014000180040001C004036
:1038D0000020004010B501F01F030121046A994047
:1038E0008C430462016A9A401143016210BD10B515
:1038F000846842EA032224F47F440A43224382601C
:1039000010BD826822F070020A4342F00701816014
:1039100070470000F0B5026A22F001020262036AF9
:1039200042688469124E24F073050C682C4323F01E
:1039300002058B682B430D4DA84201D0B04205D142
:1039400023F00807CB683B4323F00403A84201D0CF
:10395000B04205D14D6922F4407215438A692A4369
:1039600042608461496841630362F0BD0000014028
:1039700000040140F0B5026A22F010020262026AFD
:10398000436884690D6824F4E64444EA05248D689C
:1039900022F0200242EA05120F4D104EA84201D03B
:1039A000B04206D1CF6822F0800242EA071222F02C
:1039B0004002A84201D0B04207D14D6923F44063D0
:1039C00043EA85038D6943EA85034360846149685E
:1039D00081630262F0BD000000000140000401406C
:1039E000F0B5026A22F480720262026A4368C46916
:1039F00022F4007224F073050C68124E2C438D687B
:103A000042EA05220E4DA84201D0B04206D1CF684D
:103A100022F4006242EA072222F48062A84201D026
:103A2000B04207D14D6923F4405343EA05138D6931
:103A300043EA05134360C4614968C1630262F0BD93
:103A4000000001400004014030B5026A22F48052B7
:103A50000262046A4268C3690D6823F4E64343EADC
:103A600005238D6824F4005444EA0534084DA84227
:103A700002D0084DA84204D14D6922F4804242EAA6
:103A800085124260C36149680164046230BD000070
:103A9000000001400004014010B5036A046A24F0EC
:103AA00001040462846924F0F00444EA021423F05F
:103AB0000A020A438461026210BD10B5036A23F052
:103AC000100303628369046A23F4704343EA0232F9
:103AD00024F0A00343EA01118261016210BDFEE7F8
:103AE0000907090E002804DB00F1E02080F800142B
:103AF000704700F00F0000F1E02080F8141D7047BF
:103B0000002101E000BF491CB1EBC00FFAD37047A0
:103B100070B51C4E044686B0012204213046FCF7E5
:103B200028FF44F0010000F031F800241422164967
:103B30006846FCF710FC69463046FCF71DFE002580
:103B40006408002201213046FCF713FF0120FFF733
:103B5000D7FF02213046FCF707FF08B144F080048C
:103B6000012211463046FCF704FF6D1CEDB2082D12
:103B7000E6D3002204213046FCF7FBFE06B02046C7
:103B800070BD000000040240503D000870B586B0D2
:103B90000546142213496846FCF7DDFB124E6946C0
:103BA0003046FCF7E9FD0024002201213046FCF7F5
:103BB000E0FEE80701D0012200E0002202213046A9
:103BC000FCF7D7FE0120FFF79BFF0122114630468C
:103BD000FCF7CFFE641C6D08E4B2082CE4D306B0F9
:103BE00070BD00003C3D00080004024070B50A4C66
:103BF0000E460546012204212046FCF7BAFE28465F
:103C0000FFF7C4FF3046FFF7C1FF2046BDE8704014
:103C100000220421FCF7ADBE000402401CB5FDF7F4
:103C200027FB00F053F8FFF7BBFAFFF75DF9FFF74A
:103C3000B8F8FFF7C1FCFCF7A1FC36213B20CDE929
:103C400000011723012207211920FCF7EBFCFCF7E8
:103C500019FC0948FCF754FDFFF792FDFFF770F9D6
:103C6000FFF7D4F9FFF7F2F9FFF712FAFFF760FA5E
:103C700000F032F8FCE70000F40100201FB500213D
:103C80008DF80C104B1E012203A98DE80E0013467F
:103C90000246AE210348FDF7A9F99DF80C0004B0D7
:103CA00010BD0000AC0000201CB502238DF80400FC
:103CB0004FF0FF308DF80510009001AAAE210248A8
:103CC000FDF7FCF81CBD0000AC00002001490720F6
:103CD00008707047480000202DE9F0410C4D002489
:103CE0000C4F2E1F0FE0396804EB440205EB8200F5
:103CF000D0E9013C63448B4203D8816055F822002F
:103D00008047641CE4B230788442ECD3BDE8F08193
:103D10004C000020080000204FF04070E1EE100A37
:103D200070470000000000000000010203040607C5
:103D30000809000000000102030400000200000066
:103D40000100000000000000020000000000000070
:103D5000020000000000000000000000020000005F
:103D60000000000000000000000000000000000053
:103D700000000000000000F8000000000000003318
:103D80003000000000100C06100C060000000000BF
:103D90000000000040C07840C0784000043F0404A8
:103DA0003F040400007088FC08300000001820FF69
:103DB000211E0000F008F000E018000000211C03A4
:103DC0001E211E0000F00888700000001E21232420
:103DD0001927211010160E0000000000000000003E
:103DE00000000000000000E01804020000000007CE
:103DF0001820400000020418E000000000402018D5
:103E000007000000404080F0804040000202010FA7
:103E100001020200000000F0000000000101011F8B
:103E200001010100000000000000000080B07000EF
:103E3000000000000000000000000000000101017F
:103E4000010101010000000000000000003030000E
:103E500000000000000000008060180400601806E8
:103E60000100000000E010080810E000000F102022
:103E700020100F00001010F8000000000020203F6C
:103E800020200000007008080888700000302824F6
:103E90002221300000300888884830000018202097
:103EA00020110E000000C02010F8000000070424BC
:103EB000243F240000F80888880808000019212001
:103EC00020110E0000E0108888180000000F11205B
:103ED00020110E0000380808C83808000000003F14
:103EE000000000000070880808887000001C222173
:103EF00021221C0000E010080810E0000000312220
:103F000022110F00000000C0C000000000000030BF
:103F10003000000000000080000000000000806011
:103F20000000000000008040201008000001020492
:103F30000810200040404040404040000404040479
:103F40000404040000081020408000000020100835
:103F500004020100007048080808F000000000306A
:103F600036010000C030C828E810E00007182724F8
:103F700023140B000000C038E0000000203C2302A6
:103F80000227382008F8888888700000203F202009
:103F900020110E00C030080808083800071820203B
:103FA0002010080008F808080810E000203F202032
:103FB00020100F0008F88888E8081000203F202013
:103FC0002320180008F88888E8081000203F200007
:103FD00003000000C030080808380000071820203F
:103FE000221E020008F808000008F808203F2101FE
:103FF00001213F20000808F8080800000020203FA9
:104000002020000000000808F8080800C080808018
:104010007F00000008F888C028180800203F200111
:104020002638200008F8080000000000203F20206B
:104030002020300008F8F800F8F80800203F003F82
:10404000003F200008F830C00008F808203F20009A
:1040500007183F00E01008080810E0000F102020AB
:1040600020100F0008F808080808F000203F210180
:1040700001010000E01008080810E0000F182424D7
:1040800038504F0008F8888888887000203F20004A
:10409000030C302000708808080838000038202100
:1040A00021221C00180808F8080818000000203F0A
:1040B0002000000008F808000008F808001F202071
:1040C00020201F000878880000C838080000073842
:1040D0000E010000F80800F80008F800033C070093
:1040E000073C0300081868808068180820302C03FB
:1040F000032C30200838C800C83808000000203FD2
:104100002000000010080808C838080020382621C0
:1041100020201800000000FE020202000000007FC4
:1041200040404000000C30C00000000000000001D2
:104130000638C00000020202FE00000000404040BD
:104140007F000000000004020202040000000000E2
:10415000000000000000000000000000808080805F
:104160008080808000020204000000000000000047
:1041700000000000000080808080000000192422E0
:1041800022223F2008F8008080000000003F11201C
:1041900020110E000000008080800000000E112021
:1041A00020201100000000808088F800000E1120FF
:1041B00020103F200000808080800000001F22220D
:1041C00022221300008080F0888888180020203F79
:1041D000202000000000808080808000006B94948C
:1041E0009493600008F8008080800000203F210048
:1041F00000203F2000809898000000000020203F11
:1042000020200000000000809898000000C08080FE
:10421000807F000008F8000080808000203F24029A
:104220002D302000000808F8000000000020203F8A
:10423000202000008080808080808000203F20003F
:104240003F20003F8080008080800000203F2100D0
:1042500000203F200000808080800000001F202080
:1042600020201F00808000808000000080FFA120AF
:1042700020110E000000008080808000000E1120C0
:1042800020A0FF80808080008080800020203F214F
:104290002000010000008080808080000033242402
:1042A00024241900008080E0808000000000001FAE
:1042B000202000008080000000808000001F20205F
:1042C00020103F20808080000080808000010E3020
:1042D0000806010080800080008080800F300C0381
:1042E0000C300F0000808000808080000020312E84
:1042F0000E312000808080000080808080818E7060
:104300001806010000808080808080000021302C11
:104310002221300000000000807C0202000000002A
:10432000003F404000000000FF00000000000000CF
:10433000FF0000000002027C800000000040403FBF
:104340000000000000060101020204040000000059
:10435000000000007443000800000020AC000000D2
:10436000C401000820440008AC000020B40700008D
:10437000E001000801000000100000000000000043
:104380000024F40000000000000000000000000015
:10439000000100000000000000000000000000001C
:1043A000000000000000000000000000000000000D
:1043B00000000000000000000000000000000000FD
:1043C0006D3200086400000000000000A505000830
:1043D000E803000000000000FD2D00080A000000B6
:1043E000000000000D2F0008F40100000000000094
:1043F000D13500081400000000000000912C0008D6
:104400001400000000000000B5040008C80000000F
:10441000000000000000010000000000000000009B
:040000050800018965
:00000001FF
